:020000000D28C9
:100008007E14803120007F08F0007008FF007E1009
:1000180009000E287E10200011287220602066201A
:1000280002304A206C202E2000307202DD30031985
:100038007102031C222820008E16242820008E120C
:100048008230FB00DD30FA00FA0B2828FB0B282849
:100058000032122821001B08F3000630F336890B02
:1000680032287308F400F5011C08F600F701F6358C
:10007800F70DF635F70D74087604F800750877045F
:10008800F9007808F1007908F2000800F300073059
:10009800F1007108F3050230F100710821009D0597
:1000A8000230F100730A5928F135890B5828710874
:1000B800F20072089D0408007030F10071082100F8
:1000C8009E040800F830F100710821009E05080020
:1000D8000330F100710821009D04080021000E0979
:0800E8002038FF3A8E000800E9
:020000040001F9
:04000E00FCFFFFFFF5
:00000001FF
