:020000000D28C9
:100008007E14803120007F08F0007008FF007E1009
:1000180009000E284B30840000308500213066230B
:100028007E10200017287623E8225B237223200005
:100038008E12640002302000BF000430BE00BA30C7
:10004800BD00BD0B2528BE0B2528BF0B25280000A9
:10005800640002302000BF000430BE00BA30BD008A
:10006800BD0B3428BE0B3428BF0B342800002000F9
:10007800C201C301C401C5010030CA000030C90073
:100088000030C8000030C70064002000C201C3016E
:10009800C401C501C6011030460203187528023094
:1000A80024236C234E23003A031956280823710889
:1000B8002000C2077208C33D063024236C234E2358
:1000C800003A03196328082371082000C40772083E
:1000D800C53D0130BD003D08C60710304602031C6F
:1000E80053284508A1004408A0003A23200020080E
:1000F800A4002108A5002208A6004308A100420880
:10010800A0003A2320002008A7002108A800220800
:10011800A9005A2120002408B4002508B5002608A3
:10012800B6004C30AD2272082000A1007108A00072
:100138003A2320002008A4002108A5002208A600D0
:100148005C30AD2272082000A1007108A0003A239B
:1001580020002008A7002108A8002208A9005A2189
:1001680020002408B7002508B8002608B900712225
:100178000318EF2820008E12F130BD00FF30BE00BA
:10018800FF30BF00FF30C0004708BD074808BE3D2C
:100198004908BF3D4A08C03DC01BE7284008031D69
:1001A800DF283F08031DDF283E08031DDF28013034
:1001B8003D02031CE728F130C707FF30C83DFF3078
:1001C800C93DFF3016290030CA000030C900003090
:1001D800C80000301F2920008E160F30BD000030E7
:1001E800BE000030BF000030C0004708BD07480807
:1001F800BE3D4908BF3D4A08C03DC01B0F29400805
:10020800031D18293F08031D1829FF303D020F3030
:100218003E3B031818290F30C7070030C83D00308F
:10022800C93D0030CA3D20290030CA000030C9004D
:10023800FF30C800FF30C7004B355C3E86008701A1
:100248004208C03F4308C13F4B354C3E86008701FA
:100258004408C03F4508C13F0130BD003D08CB07F9
:1002680008304B060319CB014708BD004808BE00FB
:100278004908BF004A08C0000830C100C037BF0C99
:10028800BE0CBD0CC10B42293D0829009C00200072
:10029800470829009B000D302000BE00FB30BD0040
:1002A800BD0B5429BE0B54290032482820002408CD
:1002B800AA002508AB002608AC0003102B0D2C0D56
:1002C800AD002D08AE002E08031D71290030A400D2
:1002D8000030A5000030A60008002708AA0028085A
:1002E800AB002908AC0003102B0D2C0DAD002D0818
:1002F800B3003308031D87290030A4000030A5008F
:100308000030A600080033087B3EAA002A08AE0782
:100318002408AA002508AB002608AC001030AC362B
:10032800AB0CAA0C890B93292A08AD002D08B30041
:100338002708AA002808AB002908AC001030AC3602
:10034800AB0CAA0C890BA3292A08AD002D08B3060B
:100358008030AA002A08B305A517A817FF30A705FB
:10036800FF30A8050030A9050030AF000030B0000C
:100378000030B1000730AA002A08B200241CCA299C
:100388002708AF072808B03D2908B13D0130A63637
:10039800A50CA40C890BCB290130A735A80DA90DF4
:1003A800890BD1290130B202031DC2290930AA00E4
:1003B8002A08B200241CE6292708AF072808B03D00
:1003C8002908B13D0130A636A50CA40C890BE729F4
:1003D8000130B136B00CAF0C890BED290130B202F7
:1003E800031DDE292F08F1003008F2003108F30060
:1003F8002E08AA002A08F4003308AB002B08F500E1
:100408000D2271082000A4007208A5007308A60038
:10041800080074080319152A730872047104031D6F
:10042800262A0030F1000030F2000030F300080006
:100438000130F6007608F4070130F336F20CF10CBF
:10044800890B212AFE30730503193F2A1C2A013023
:10045800F6007608F4070130F10700300318013080
:10046800F207003003180130F3070130F336F20CBD
:10047800F10C890B3A2AFF30730503194C2A2B2AF1
:100488000130F4020130F135F20DF30D890B472AE2
:10049800F21B522A023074020318442A74185A2A8A
:1004A800FF30F1057F30F205FF30F3050310F40C3F
:1004B8007408F600F701F8011030F635F70DF80D5D
:1004C800890B612A7608F1047708F2047808F304A6
:1004D800750803190800F31708002000B61F882ABA
:1004E8003409BA003509BB003609BC00BA0A031939
:1004F800BB0A0319BC0A00303A07B40000303B3D80
:10050800B50080303C3DB600B91F9E2A3709BA00B5
:100518003809BB003909BC00BA0A0319BB0A031918
:10052800BC0A00303A07B70000303B3DB8008030C5
:100538003C3DB9008030B6068030B906390836022D
:10054800031D080038083502031D08003708340267
:100558000800FB000030FA000030F9000030F80015
:100568000030F700FC0108307C020318D42A7C35DF
:100578007B07F300730886008701403FF400413F82
:10058800F5007408F7077508F83D0030F93DFA3DA5
:100598000130F3007308FC0708307C02031CBB2AF7
:1005A8007708F3007808F4007908F5007A08F6006F
:1005B8000330F636F50CF40CF30C890BDD2A7408BD
:1005C800F2007308F100080021000E091038FF3A04
:1005D8008C000E093038FF3A8E0020000E160630C7
:1005E800F100710821008C040630F1007108230025
:1005F8008C040C30F100710821008E040C30F100DD
:10060800710823008E04080021001B08F30006303F
:10061800F336890B0C2B7308F400F5011C08F6005F
:10062800F701F635F70DF635F70D74087604F8007E
:1006380075087704F9007808F1007908F2000800D5
:10064800F3000730F1007108F3050230F10071087A
:1006580021009D050230F100730A332BF135890B17
:10066800322B7108F20072089D040800200020084F
:10067800F1002108F200F3018E30A3002308F400F2
:10068800F5010D2271082000A0007208A10073086E
:10069800A200080021001D08F1000130F136890B85
:1006A800522B7118592B0130080000300800220025
:1006B8001D14C030F10071088B04CE3029009E0053
:1006C8009F010800640080010131890B672B003409
:1006D8000330F100710821009D04080070302100EA
:0606E8009E00080008005E
:020000040001F9
:04000E00FCFFFFFFF5
:00000001FF
